{
  "_format": "hh-sol-artifact-1",
  "contractName": "RoboPunksNFT",
  "sourceName": "contracts/RoboPunksNFT.sol",
  "abi": [
    {
      "inputs": [],
      "stateMutability": "payable",
      "type": "constructor"
    },
    {
      "anonymous": false,
      "inputs": [
        {
          "indexed": true,
          "internalType": "address",
          "name": "owner",
          "type": "address"
        },
        {
          "indexed": true,
          "internalType": "address",
          "name": "approved",
          "type": "address"
        },
        {
          "indexed": true,
          "internalType": "uint256",
          "name": "tokenId",
          "type": "uint256"
        }
      ],
      "name": "Approval",
      "type": "event"
    },
    {
      "anonymous": false,
      "inputs": [
        {
          "indexed": true,
          "internalType": "address",
          "name": "owner",
          "type": "address"
        },
        {
          "indexed": true,
          "internalType": "address",
          "name": "operator",
          "type": "address"
        },
        {
          "indexed": false,
          "internalType": "bool",
          "name": "approved",
          "type": "bool"
        }
      ],
      "name": "ApprovalForAll",
      "type": "event"
    },
    {
      "anonymous": false,
      "inputs": [
        {
          "indexed": true,
          "internalType": "address",
          "name": "previousOwner",
          "type": "address"
        },
        {
          "indexed": true,
          "internalType": "address",
          "name": "newOwner",
          "type": "address"
        }
      ],
      "name": "OwnershipTransferred",
      "type": "event"
    },
    {
      "anonymous": false,
      "inputs": [
        {
          "indexed": true,
          "internalType": "address",
          "name": "from",
          "type": "address"
        },
        {
          "indexed": true,
          "internalType": "address",
          "name": "to",
          "type": "address"
        },
        {
          "indexed": true,
          "internalType": "uint256",
          "name": "tokenId",
          "type": "uint256"
        }
      ],
      "name": "Transfer",
      "type": "event"
    },
    {
      "inputs": [
        {
          "internalType": "address",
          "name": "to",
          "type": "address"
        },
        {
          "internalType": "uint256",
          "name": "tokenId",
          "type": "uint256"
        }
      ],
      "name": "approve",
      "outputs": [],
      "stateMutability": "nonpayable",
      "type": "function"
    },
    {
      "inputs": [
        {
          "internalType": "address",
          "name": "owner",
          "type": "address"
        }
      ],
      "name": "balanceOf",
      "outputs": [
        {
          "internalType": "uint256",
          "name": "",
          "type": "uint256"
        }
      ],
      "stateMutability": "view",
      "type": "function"
    },
    {
      "inputs": [
        {
          "internalType": "uint256",
          "name": "tokenId",
          "type": "uint256"
        }
      ],
      "name": "getApproved",
      "outputs": [
        {
          "internalType": "address",
          "name": "",
          "type": "address"
        }
      ],
      "stateMutability": "view",
      "type": "function"
    },
    {
      "inputs": [
        {
          "internalType": "address",
          "name": "owner",
          "type": "address"
        },
        {
          "internalType": "address",
          "name": "operator",
          "type": "address"
        }
      ],
      "name": "isApprovedForAll",
      "outputs": [
        {
          "internalType": "bool",
          "name": "",
          "type": "bool"
        }
      ],
      "stateMutability": "view",
      "type": "function"
    },
    {
      "inputs": [],
      "name": "isPublicMintEnabled",
      "outputs": [
        {
          "internalType": "bool",
          "name": "",
          "type": "bool"
        }
      ],
      "stateMutability": "view",
      "type": "function"
    },
    {
      "inputs": [],
      "name": "maxPerWallet",
      "outputs": [
        {
          "internalType": "uint256",
          "name": "",
          "type": "uint256"
        }
      ],
      "stateMutability": "view",
      "type": "function"
    },
    {
      "inputs": [],
      "name": "maxSupply",
      "outputs": [
        {
          "internalType": "uint256",
          "name": "",
          "type": "uint256"
        }
      ],
      "stateMutability": "view",
      "type": "function"
    },
    {
      "inputs": [
        {
          "internalType": "uint256",
          "name": "quantity_",
          "type": "uint256"
        }
      ],
      "name": "mint",
      "outputs": [],
      "stateMutability": "payable",
      "type": "function"
    },
    {
      "inputs": [],
      "name": "mintPrice",
      "outputs": [
        {
          "internalType": "uint256",
          "name": "",
          "type": "uint256"
        }
      ],
      "stateMutability": "view",
      "type": "function"
    },
    {
      "inputs": [],
      "name": "name",
      "outputs": [
        {
          "internalType": "string",
          "name": "",
          "type": "string"
        }
      ],
      "stateMutability": "view",
      "type": "function"
    },
    {
      "inputs": [],
      "name": "owner",
      "outputs": [
        {
          "internalType": "address",
          "name": "",
          "type": "address"
        }
      ],
      "stateMutability": "view",
      "type": "function"
    },
    {
      "inputs": [
        {
          "internalType": "uint256",
          "name": "tokenId",
          "type": "uint256"
        }
      ],
      "name": "ownerOf",
      "outputs": [
        {
          "internalType": "address",
          "name": "",
          "type": "address"
        }
      ],
      "stateMutability": "view",
      "type": "function"
    },
    {
      "inputs": [],
      "name": "renounceOwnership",
      "outputs": [],
      "stateMutability": "nonpayable",
      "type": "function"
    },
    {
      "inputs": [
        {
          "internalType": "address",
          "name": "from",
          "type": "address"
        },
        {
          "internalType": "address",
          "name": "to",
          "type": "address"
        },
        {
          "internalType": "uint256",
          "name": "tokenId",
          "type": "uint256"
        }
      ],
      "name": "safeTransferFrom",
      "outputs": [],
      "stateMutability": "nonpayable",
      "type": "function"
    },
    {
      "inputs": [
        {
          "internalType": "address",
          "name": "from",
          "type": "address"
        },
        {
          "internalType": "address",
          "name": "to",
          "type": "address"
        },
        {
          "internalType": "uint256",
          "name": "tokenId",
          "type": "uint256"
        },
        {
          "internalType": "bytes",
          "name": "data",
          "type": "bytes"
        }
      ],
      "name": "safeTransferFrom",
      "outputs": [],
      "stateMutability": "nonpayable",
      "type": "function"
    },
    {
      "inputs": [
        {
          "internalType": "address",
          "name": "operator",
          "type": "address"
        },
        {
          "internalType": "bool",
          "name": "approved",
          "type": "bool"
        }
      ],
      "name": "setApprovalForAll",
      "outputs": [],
      "stateMutability": "nonpayable",
      "type": "function"
    },
    {
      "inputs": [
        {
          "internalType": "string",
          "name": "baseTokenUri_",
          "type": "string"
        }
      ],
      "name": "setBaseTokenUri",
      "outputs": [],
      "stateMutability": "nonpayable",
      "type": "function"
    },
    {
      "inputs": [
        {
          "internalType": "bool",
          "name": "isPublicMintEnabled_",
          "type": "bool"
        }
      ],
      "name": "setIsPublicisMintEnabled",
      "outputs": [],
      "stateMutability": "nonpayable",
      "type": "function"
    },
    {
      "inputs": [
        {
          "internalType": "bytes4",
          "name": "interfaceId",
          "type": "bytes4"
        }
      ],
      "name": "supportsInterface",
      "outputs": [
        {
          "internalType": "bool",
          "name": "",
          "type": "bool"
        }
      ],
      "stateMutability": "view",
      "type": "function"
    },
    {
      "inputs": [],
      "name": "symbol",
      "outputs": [
        {
          "internalType": "string",
          "name": "",
          "type": "string"
        }
      ],
      "stateMutability": "view",
      "type": "function"
    },
    {
      "inputs": [
        {
          "internalType": "uint256",
          "name": "tokenId_",
          "type": "uint256"
        }
      ],
      "name": "tokenURI",
      "outputs": [
        {
          "internalType": "string",
          "name": "",
          "type": "string"
        }
      ],
      "stateMutability": "view",
      "type": "function"
    },
    {
      "inputs": [],
      "name": "totalSupply",
      "outputs": [
        {
          "internalType": "uint256",
          "name": "",
          "type": "uint256"
        }
      ],
      "stateMutability": "view",
      "type": "function"
    },
    {
      "inputs": [
        {
          "internalType": "address",
          "name": "from",
          "type": "address"
        },
        {
          "internalType": "address",
          "name": "to",
          "type": "address"
        },
        {
          "internalType": "uint256",
          "name": "tokenId",
          "type": "uint256"
        }
      ],
      "name": "transferFrom",
      "outputs": [],
      "stateMutability": "nonpayable",
      "type": "function"
    },
    {
      "inputs": [
        {
          "internalType": "address",
          "name": "newOwner",
          "type": "address"
        }
      ],
      "name": "transferOwnership",
      "outputs": [],
      "stateMutability": "nonpayable",
      "type": "function"
    },
    {
      "inputs": [
        {
          "internalType": "address",
          "name": "",
          "type": "address"
        }
      ],
      "name": "walletMints",
      "outputs": [
        {
          "internalType": "uint256",
          "name": "",
          "type": "uint256"
        }
      ],
      "stateMutability": "view",
      "type": "function"
    },
    {
      "inputs": [],
      "name": "withdraw",
      "outputs": [],
      "stateMutability": "nonpayable",
      "type": "function"
    },
    {
      "inputs": [],
      "name": "withdrawWallet",
      "outputs": [
        {
          "internalType": "address payable",
          "name": "",
          "type": "address"
        }
      ],
      "stateMutability": "view",
      "type": "function"
    }
  ],
  "bytecode": "0x6009608081815268526f626f50756e6b7360b81b60a0908152610100604052600260c090815261052560f41b60e05291926200003e91600091620000e2565b50805162000054906001906020840190620000e2565b505050620000716200006b6200008c60201b60201c565b62000090565b600060078190556008556103e86009556003600a55620001c5565b3390565b600680546001600160a01b038381166001600160a01b0319831681179093556040519116919082907f8be0079c531659141344cd1fd0a4f28419497f9722a3daafe3b4186f6b6457e090600090a35050565b828054620000f09062000188565b90600052602060002090601f0160209004810192826200011457600085556200015f565b82601f106200012f57805160ff19168380011785556200015f565b828001600101855582156200015f579182015b828111156200015f57825182559160200191906001019062000142565b506200016d92915062000171565b5090565b5b808211156200016d576000815560010162000172565b6002810460018216806200019d57607f821691505b60208210811415620001bf57634e487b7160e01b600052602260045260246000fd5b50919050565b611cb680620001d56000396000f3fe60806040526004361061019c5760003560e01c8063715018a6116100ec578063a22cb4651161008a578063d5abeb0111610064578063d5abeb0114610445578063e985e9c51461045a578063f0293fd31461047a578063f2fde38b1461049a5761019c565b8063a22cb465146103e5578063b88d4fde14610405578063c87b56dd146104255761019c565b80638da5cb5b116100c65780638da5cb5b1461038857806395652cfa1461039d57806395d89b41146103bd578063a0712d68146103d25761019c565b8063715018a61461033e5780637607795a1461035357806385d178f4146103735761019c565b806323b872dd11610159578063453c231011610133578063453c2310146102d45780636352211e146102e95780636817c76c1461030957806370a082311461031e5761019c565b806323b872dd1461027f5780633ccfd60b1461029f57806342842e0e146102b45761019c565b80630116bc2d146101a157806301ffc9a7146101cc57806306fdde03146101ec578063081812fc1461020e578063095ea7b31461023b57806318160ddd1461025d575b600080fd5b3480156101ad57600080fd5b506101b66104ba565b6040516101c391906116f2565b60405180910390f35b3480156101d857600080fd5b506101b66101e73660046114da565b6104c3565b3480156101f857600080fd5b5061020161050b565b6040516101c391906116fd565b34801561021a57600080fd5b5061022e61022936600461157f565b61059d565b6040516101c391906116a1565b34801561024757600080fd5b5061025b610256366004611497565b6105c4565b005b34801561026957600080fd5b50610272610665565b6040516101c39190611b70565b34801561028b57600080fd5b5061025b61029a36600461135e565b61066b565b3480156102ab57600080fd5b5061025b6106a3565b3480156102c057600080fd5b5061025b6102cf36600461135e565b61072f565b3480156102e057600080fd5b5061027261074a565b3480156102f557600080fd5b5061022e61030436600461157f565b610750565b34801561031557600080fd5b50610272610784565b34801561032a57600080fd5b5061027261033936600461130b565b61078a565b34801561034a57600080fd5b5061025b6107ce565b34801561035f57600080fd5b5061025b61036e3660046114c0565b6107e2565b34801561037f57600080fd5b5061022e6107fd565b34801561039457600080fd5b5061022e61080c565b3480156103a957600080fd5b5061025b6103b8366004611512565b61081b565b3480156103c957600080fd5b5061020161082f565b61025b6103e036600461157f565b61083e565b3480156103f157600080fd5b5061025b61040036600461146e565b61094a565b34801561041157600080fd5b5061025b610420366004611399565b61095c565b34801561043157600080fd5b5061020161044036600461157f565b61099b565b34801561045157600080fd5b506102726109f4565b34801561046657600080fd5b506101b661047536600461132c565b6109fa565b34801561048657600080fd5b5061027261049536600461130b565b610a28565b3480156104a657600080fd5b5061025b6104b536600461130b565b610a3a565b600b5460ff1681565b60006001600160e01b031982166380ac58cd60e01b14806104f457506001600160e01b03198216635b5e139f60e01b145b80610503575061050382610a71565b90505b919050565b60606000805461051a90611be8565b80601f016020809104026020016040519081016040528092919081815260200182805461054690611be8565b80156105935780601f1061056857610100808354040283529160200191610593565b820191906000526020600020905b81548152906001019060200180831161057657829003601f168201915b5050505050905090565b60006105a882610a8a565b506000908152600460205260409020546001600160a01b031690565b60006105cf82610750565b9050806001600160a01b0316836001600160a01b0316141561060c5760405162461bcd60e51b815260040161060390611a7a565b60405180910390fd5b806001600160a01b031661061e610aaf565b6001600160a01b0316148061063a575061063a81610475610aaf565b6106565760405162461bcd60e51b815260040161060390611abb565b6106608383610ab3565b505050565b60085481565b61067c610676610aaf565b82610b21565b6106985760405162461bcd60e51b81526004016106039061173a565b610660838383610b80565b6106ab610cbd565b600d546040516000916001600160a01b03169047906106c99061169e565b60006040518083038185875af1925050503d8060008114610706576040519150601f19603f3d011682016040523d82523d6000602084013e61070b565b606091505b505090508061072c5760405162461bcd60e51b815260040161060390611b47565b50565b6106608383836040518060200160405280600081525061095c565b600a5481565b60008061075c83610cfc565b90506001600160a01b0381166105035760405162461bcd60e51b815260040161060390611a43565b60075481565b60006001600160a01b0382166107b25760405162461bcd60e51b815260040161060390611965565b506001600160a01b031660009081526003602052604090205490565b6107d6610cbd565b6107e06000610d17565b565b6107ea610cbd565b600b805460ff1916911515919091179055565b600d546001600160a01b031681565b6006546001600160a01b031690565b610823610cbd565b610660600c838361124b565b60606001805461051a90611be8565b600b5460ff166108605760405162461bcd60e51b8152600401610603906117d9565b60075461086d9082611b9d565b341461088b5760405162461bcd60e51b815260040161060390611710565b6009548160085461089c9190611b85565b11156108ba5760405162461bcd60e51b815260040161060390611943565b600a54336000908152600e60205260409020546108d8908390611b85565b11156108f65760405162461bcd60e51b8152600401610603906119e3565b60005b8181101561094657600060085460016109129190611b85565b60088054919250600061092483611c23565b91905055506109333382610d69565b508061093e81611c23565b9150506108f9565b5050565b610946610955610aaf565b8383610d83565b61096d610967610aaf565b83610b21565b6109895760405162461bcd60e51b81526004016106039061173a565b61099584848484610e26565b50505050565b60606109a682610e59565b6109c25760405162461bcd60e51b815260040161060390611b18565b600c6109cd83610e76565b6040516020016109de9291906115f0565b6040516020818303038152906040529050919050565b60095481565b6001600160a01b03918216600090815260056020908152604080832093909416825291909152205460ff1690565b600e6020526000908152604090205481565b610a42610cbd565b6001600160a01b038116610a685760405162461bcd60e51b815260040161060390611806565b61072c81610d17565b6001600160e01b031981166301ffc9a760e01b14919050565b610a9381610e59565b61072c5760405162461bcd60e51b815260040161060390611a43565b3390565b600081815260046020526040902080546001600160a01b0319166001600160a01b0384169081179091558190610ae882610750565b6001600160a01b03167f8c5be1e5ebec7d5bd14f71427d1e84f3dd0314c0f7b2291e5b200ac8c7c3b92560405160405180910390a45050565b600080610b2d83610750565b9050806001600160a01b0316846001600160a01b03161480610b545750610b5481856109fa565b80610b785750836001600160a01b0316610b6d8461059d565b6001600160a01b0316145b949350505050565b826001600160a01b0316610b9382610750565b6001600160a01b031614610bb95760405162461bcd60e51b81526004016106039061184c565b6001600160a01b038216610bdf5760405162461bcd60e51b8152600401610603906118c8565b610bec8383836001610995565b826001600160a01b0316610bff82610750565b6001600160a01b031614610c255760405162461bcd60e51b81526004016106039061184c565b600081815260046020908152604080832080546001600160a01b03199081169091556001600160a01b0387811680865260038552838620805460001901905590871680865283862080546001019055868652600290945282852080549092168417909155905184937fddf252ad1be2c89b69c2b068fc378daa952ba7f163c4a11628f55a4df523b3ef91a46106608383836001610995565b610cc5610aaf565b6001600160a01b0316610cd661080c565b6001600160a01b0316146107e05760405162461bcd60e51b815260040161060390611a0e565b6000908152600260205260409020546001600160a01b031690565b600680546001600160a01b038381166001600160a01b0319831681179093556040519116919082907f8be0079c531659141344cd1fd0a4f28419497f9722a3daafe3b4186f6b6457e090600090a35050565b610946828260405180602001604052806000815250610f21565b816001600160a01b0316836001600160a01b03161415610db55760405162461bcd60e51b81526004016106039061190c565b6001600160a01b0383811660008181526005602090815260408083209487168084529490915290819020805460ff1916851515179055517f17307eab39ab6107e8899845ad3d59bd9653f200f220920489ca2b5937696c3190610e199085906116f2565b60405180910390a3505050565b610e31848484610b80565b610e3d84848484610f54565b6109955760405162461bcd60e51b815260040161060390611787565b600080610e6583610cfc565b6001600160a01b0316141592915050565b60606000610e838361106f565b600101905060008167ffffffffffffffff811115610eb157634e487b7160e01b600052604160045260246000fd5b6040519080825280601f01601f191660200182016040528015610edb576020820181803683370190505b5090508181016020015b600019016f181899199a1a9b1b9c1cb0b131b232b360811b600a86061a8153600a8504945084610f1457610f19565b610ee5565b509392505050565b610f2b8383611147565b610f386000848484610f54565b6106605760405162461bcd60e51b815260040161060390611787565b6000610f68846001600160a01b031661123c565b1561106457836001600160a01b031663150b7a02610f84610aaf565b8786866040518563ffffffff1660e01b8152600401610fa694939291906116b5565b602060405180830381600087803b158015610fc057600080fd5b505af1925050508015610ff0575060408051601f3d908101601f19168201909252610fed918101906114f6565b60015b61104a573d80801561101e576040519150601f19603f3d011682016040523d82523d6000602084013e611023565b606091505b5080516110425760405162461bcd60e51b815260040161060390611787565b805181602001fd5b6001600160e01b031916630a85bd0160e11b149050610b78565b506001949350505050565b60008072184f03e93ff9f4daa797ed6e38ed64bf6a1f0160401b83106110ae5772184f03e93ff9f4daa797ed6e38ed64bf6a1f0160401b830492506040015b6d04ee2d6d415b85acef810000000083106110da576d04ee2d6d415b85acef8100000000830492506020015b662386f26fc1000083106110f857662386f26fc10000830492506010015b6305f5e1008310611110576305f5e100830492506008015b612710831061112457612710830492506004015b60648310611136576064830492506002015b600a83106105035760010192915050565b6001600160a01b03821661116d5760405162461bcd60e51b8152600401610603906119ae565b61117681610e59565b156111935760405162461bcd60e51b815260040161060390611891565b6111a1600083836001610995565b6111aa81610e59565b156111c75760405162461bcd60e51b815260040161060390611891565b6001600160a01b038216600081815260036020908152604080832080546001019055848352600290915280822080546001600160a01b0319168417905551839291907fddf252ad1be2c89b69c2b068fc378daa952ba7f163c4a11628f55a4df523b3ef908290a4610946600083836001610995565b6001600160a01b03163b151590565b82805461125790611be8565b90600052602060002090601f01602090048101928261127957600085556112bf565b82601f106112925782800160ff198235161785556112bf565b828001600101855582156112bf579182015b828111156112bf5782358255916020019190600101906112a4565b506112cb9291506112cf565b5090565b5b808211156112cb57600081556001016112d0565b80356001600160a01b038116811461050657600080fd5b8035801515811461050657600080fd5b60006020828403121561131c578081fd5b611325826112e4565b9392505050565b6000806040838503121561133e578081fd5b611347836112e4565b9150611355602084016112e4565b90509250929050565b600080600060608486031215611372578081fd5b61137b846112e4565b9250611389602085016112e4565b9150604084013590509250925092565b600080600080608085870312156113ae578081fd5b6113b7856112e4565b93506113c5602086016112e4565b925060408501359150606085013567ffffffffffffffff808211156113e8578283fd5b818701915087601f8301126113fb578283fd5b81358181111561140d5761140d611c54565b604051601f8201601f19908116603f0116810190838211818310171561143557611435611c54565b816040528281528a602084870101111561144d578586fd5b82602086016020830137918201602001949094529598949750929550505050565b60008060408385031215611480578182fd5b611489836112e4565b9150611355602084016112fb565b600080604083850312156114a9578182fd5b6114b2836112e4565b946020939093013593505050565b6000602082840312156114d1578081fd5b611325826112fb565b6000602082840312156114eb578081fd5b813561132581611c6a565b600060208284031215611507578081fd5b815161132581611c6a565b60008060208385031215611524578182fd5b823567ffffffffffffffff8082111561153b578384fd5b818501915085601f83011261154e578384fd5b81358181111561155c578485fd5b86602082850101111561156d578485fd5b60209290920196919550909350505050565b600060208284031215611590578081fd5b5035919050565b600081518084526115af816020860160208601611bbc565b601f01601f19169290920160200192915050565b600081516115d5818560208601611bbc565b9290920192915050565b64173539b7b760d91b815260050190565b825460009081906002810460018083168061160c57607f831692505b602080841082141561162c57634e487b7160e01b87526022600452602487fd5b81801561164057600181146116515761167d565b60ff1986168952848901965061167d565b61165a8b611b79565b885b868110156116755781548b82015290850190830161165c565b505084890196505b50505050505061169561169082866115c3565b6115df565b95945050505050565b90565b6001600160a01b0391909116815260200190565b6001600160a01b03858116825284166020820152604081018390526080606082018190526000906116e890830184611597565b9695505050505050565b901515815260200190565b6000602082526113256020830184611597565b60208082526010908201526f77726f6e67206d696e742076616c756560801b604082015260600190565b6020808252602d908201527f4552433732313a2063616c6c6572206973206e6f7420746f6b656e206f776e6560408201526c1c881bdc88185c1c1c9bdd9959609a1b606082015260800190565b60208082526032908201527f4552433732313a207472616e7366657220746f206e6f6e20455243373231526560408201527131b2b4bb32b91034b6b83632b6b2b73a32b960711b606082015260800190565b6020808252601390820152721b5a5b9d1a5b99c81b9bdd08195b98589b1959606a1b604082015260600190565b60208082526026908201527f4f776e61626c653a206e6577206f776e657220697320746865207a65726f206160408201526564647265737360d01b606082015260800190565b60208082526025908201527f4552433732313a207472616e736665722066726f6d20696e636f72726563742060408201526437bbb732b960d91b606082015260800190565b6020808252601c908201527f4552433732313a20746f6b656e20616c7265616479206d696e74656400000000604082015260600190565b60208082526024908201527f4552433732313a207472616e7366657220746f20746865207a65726f206164646040820152637265737360e01b606082015260800190565b60208082526019908201527f4552433732313a20617070726f766520746f2063616c6c657200000000000000604082015260600190565b6020808252600890820152671cdbdb19081bdd5d60c21b604082015260600190565b60208082526029908201527f4552433732313a2061646472657373207a65726f206973206e6f7420612076616040820152683634b21037bbb732b960b91b606082015260800190565b6020808252818101527f4552433732313a206d696e7420746f20746865207a65726f2061646472657373604082015260600190565b602080825260119082015270195e18d95959081b585e081dd85b1b195d607a1b604082015260600190565b6020808252818101527f4f776e61626c653a2063616c6c6572206973206e6f7420746865206f776e6572604082015260600190565b60208082526018908201527f4552433732313a20696e76616c696420746f6b656e2049440000000000000000604082015260600190565b60208082526021908201527f4552433732313a20617070726f76616c20746f2063757272656e74206f776e656040820152603960f91b606082015260800190565b6020808252603d908201527f4552433732313a20617070726f76652063616c6c6572206973206e6f7420746f60408201527f6b656e206f776e6572206f7220617070726f76656420666f7220616c6c000000606082015260800190565b602080825260159082015274546f6b656e20646f6573206e6f742065786973742160581b604082015260600190565b6020808252600f908201526e1dda5d1a191c985dc819985a5b1959608a1b604082015260600190565b90815260200190565b60009081526020902090565b60008219821115611b9857611b98611c3e565b500190565b6000816000190483118215151615611bb757611bb7611c3e565b500290565b60005b83811015611bd7578181015183820152602001611bbf565b838111156109955750506000910152565b600281046001821680611bfc57607f821691505b60208210811415611c1d57634e487b7160e01b600052602260045260246000fd5b50919050565b6000600019821415611c3757611c37611c3e565b5060010190565b634e487b7160e01b600052601160045260246000fd5b634e487b7160e01b600052604160045260246000fd5b6001600160e01b03198116811461072c57600080fdfea2646970667358221220cbe5215943ada43507a3778ba9ed5768b1adaa054e64b65a3d69f6251188426a64736f6c63430008010033",
  "linkReferences": {},
  "deployedLinkReferences": {}
}